:020000040800F2
:100000000080002089010008F1010008F1010008CA
:10001000F1010008F1010008F101000800000000F2
:10002000000000000000000000000000F1010008D6
:10003000F101000800000000F1010008F1010008D2
:10004000F1010008F1010008F1010008F1010008C8
:10005000F1010008F1010008F1010008F1010008B8
:10006000F1010008F1010008F1010008F1010008A8
:10007000F1010008F1010008F1010008F101000898
:10008000F1010008F1010008F1010008F101000888
:10009000F1010008F1010008F1010008F101000878
:1000A000F1010008F1010008F1010008F101000868
:1000B000F1010008F1010008F1010008F101000858
:1000C000F1010008F1010008F1010008F101000848
:1000D000F1010008F1010008F1010008F101000838
:1000E000F1010008F1010008F1010008F101000828
:1000F000F1010008F1010008F1010008F101000818
:10010000F1010008F1010008F1010008F101000807
:10011000F1010008F1010008F1010008F1010008F7
:10012000F1010008F1010008F1010008F1010008E7
:10013000F1010008F1010008F1010008F1010008D7
:10014000F1010008F1010008F1010008F1010008C7
:10015000F1010008F1010008F1010008F1010008B7
:10016000F1010008F1010008F1010008F1010008A7
:10017000F1010008F1010008F1010008F101000897
:10018000F1010008F101000880B582B000AF124B08
:100190007B60124B3B6007E03B681A1D3A607A684F
:1001A000111D796012681A603B680D4A9342F3D3BF
:1001B0000C480D494FF000028842B8BF40F8042BAC
:1001C000FADBDFF82800016841F47001016000F0FB
:1001D0008BF80837BD4680BD9C0600080000002053
:1001E00000000020000000200000002088ED00E05A
:1001F00080B400AFFEE700BF80B582B000AF022040
:10020000012100F0A9F801233B710023BB710323F6
:100210007B710023FB7104233B603B460548194674
:1002200000F0B8F80348042100F05CF90837BD4637
:1002300080BD00BF0004024080B582B000AF042042
:10024000012100F089F801233B710023BB710323D6
:100250007B710023FB7104233B603B460548194634
:1002600000F098F80348042100F03CF90837BD4637
:1002700080BD00BF0008024080B582B000AF012001
:10028000012100F069F800233B710023BB710323B7
:100290007B710123FB7110233B603B4603481946E9
:1002A00000F078F80837BD4680BD00BF000002406E
:1002B00080B582B000AF0120012100F04DF800238D
:1002C0003B710023BB7103237B710123FB714FF44E
:1002D00080633B603B460348194600F05BF80837F3
:1002E000BD4680BD0000024080B500AF00F016F9A9
:1002F0004FF4407000F0C0F9FFF77EFFFFF79CFF5E
:10030000FFF7BAFFFFF7D4FF1048102100F0D0F834
:100310000346012B04D10E48042100F0E3F803E06A
:100320000B48042100F0ECF808484FF4806100F01D
:10033000BFF80346012B04D10648042100F0D2F88F
:1003400003E00448042100F0DBF8DDE70000024090
:10035000000402400008024080B483B000AF78601F
:100360000B46FB70FB78002B06D00949084B1A6B33
:100370007B6813430B6306E00549054B1A6B7B68EA
:10038000DB4313400B630C37BD465DF8047B7047BD
:100390000038024080B487B000AF78603960002335
:1003A0007B6100233B610023FB6000237B6176E0DF
:1003B0007B69012202FA03F33B613B681A683B69DF
:1003C0001340FB60FA683B699A4265D17B681A6802
:1003D0007B695B00194603238B40DB431A407B6833
:1003E0001A607B681A683B681B7919467B695B0059
:1003F00001FA03F31A437B681A603B681B79012BEF
:1004000003D03B681B79022B2ED17B689A687B69ED
:100410005B00194603238B40DB431A407B689A60DC
:100420007B689A683B685B7919467B695B0001FAD7
:1004300003F31A437B689A607B685A687B699BB2B6
:10044000194601238B40DB431A407B685A607B6866
:100450005B683A68927911467A6992B201FA02F2BF
:1004600092B21A437B685A607B68DA687B699BB2F8
:100470005B00032101FA03F3DB431A407B68DA6077
:100480007B68DA683B68DB7919467B695B0001FAB7
:1004900003F31A437B68DA607B6901337B617B6914
:1004A0000F2B85D91C37BD465DF8047B704700BF14
:1004B00080B485B000AF78600B467B800023FB736F
:1004C0007B681A697B881340002B02D00123FB73E1
:1004D00001E00023FB73FB7B18461437BD465DF833
:1004E000047B704780B483B000AF78600B467B809C
:1004F0007B687A881A830C37BD465DF8047B7047A9
:1005000080B483B000AF78600B467B807B687A88CC
:100510005A830C37BD465DF8047B704780B500AF49
:10052000154A154BD3F8883043F47003C2F888306D
:10053000124A124B1B6843F0010313600F4B002259
:100540009A600E4A0D4B1B6823F0847323F48033AA
:1005500013600A4B0A4A5A60084A084B1B6823F486
:1005600080231360054B0022DA6000F00BF8024B89
:100570004FF000629A6080BD00ED00E0003802405C
:100580001030002480B483B000AF00237B600023D0
:100590003B60354A344B1B6843F480331360324B65
:1005A0001B6803F400333B607B6801337B603B686E
:1005B000002B03D17B68B3F5A06FF0D12A4B1B68E9
:1005C00003F40033002B02D001233B6001E0002341
:1005D0003B603B68012B42D1234A234B1B6C43F009
:1005E00080531364214A214B1B6843F480431360FA
:1005F0001D4A1D4B9B6893601B4A1B4B9B6843F431
:1006000000439360184A184B9B6843F4A0539360CF
:10061000154B174A5A60144A134B1B6843F08073FA
:10062000136000BF104B1B6803F00073002BF9D060
:10063000104B40F205621A600B4A0B4B9B6823F08B
:1006400003039360084A084B9B6843F002039360DE
:1006500000BF054B9B6803F00C03082BF9D10C3746
:10066000BD465DF8047B70470038024000700040D2
:1006700008544007003C024080B483B000AF78606B
:10068000054A7B6843F0BF6343F40033D3600C3703
:0C069000BD465DF8047B704700ED00E003
:0400000508000000EF
:00000001FF
